{
    "contractName": "Animals",
    "abi": [
        {
            "inputs": [
                {
                    "internalType": "string",
                    "name": "name",
                    "type": "string"
                },
                {
                    "internalType": "string",
                    "name": "symbol",
                    "type": "string"
                },
                {
                    "internalType": "string",
                    "name": "baseTokenURI",
                    "type": "string"
                }
            ],
            "stateMutability": "nonpayable",
            "type": "constructor"
        },
        {
            "anonymous": false,
            "inputs": [
                {
                    "indexed": true,
                    "internalType": "address",
                    "name": "owner",
                    "type": "address"
                },
                {
                    "indexed": true,
                    "internalType": "address",
                    "name": "approved",
                    "type": "address"
                },
                {
                    "indexed": true,
                    "internalType": "uint256",
                    "name": "tokenId",
                    "type": "uint256"
                }
            ],
            "name": "Approval",
            "type": "event"
        },
        {
            "anonymous": false,
            "inputs": [
                {
                    "indexed": true,
                    "internalType": "address",
                    "name": "owner",
                    "type": "address"
                },
                {
                    "indexed": true,
                    "internalType": "address",
                    "name": "operator",
                    "type": "address"
                },
                {
                    "indexed": false,
                    "internalType": "bool",
                    "name": "approved",
                    "type": "bool"
                }
            ],
            "name": "ApprovalForAll",
            "type": "event"
        },
        {
            "anonymous": false,
            "inputs": [
                {
                    "indexed": false,
                    "internalType": "address",
                    "name": "account",
                    "type": "address"
                }
            ],
            "name": "Paused",
            "type": "event"
        },
        {
            "anonymous": false,
            "inputs": [
                {
                    "indexed": true,
                    "internalType": "bytes32",
                    "name": "role",
                    "type": "bytes32"
                },
                {
                    "indexed": true,
                    "internalType": "bytes32",
                    "name": "previousAdminRole",
                    "type": "bytes32"
                },
                {
                    "indexed": true,
                    "internalType": "bytes32",
                    "name": "newAdminRole",
                    "type": "bytes32"
                }
            ],
            "name": "RoleAdminChanged",
            "type": "event"
        },
        {
            "anonymous": false,
            "inputs": [
                {
                    "indexed": true,
                    "internalType": "bytes32",
                    "name": "role",
                    "type": "bytes32"
                },
                {
                    "indexed": true,
                    "internalType": "address",
                    "name": "account",
                    "type": "address"
                },
                {
                    "indexed": true,
                    "internalType": "address",
                    "name": "sender",
                    "type": "address"
                }
            ],
            "name": "RoleGranted",
            "type": "event"
        },
        {
            "anonymous": false,
            "inputs": [
                {
                    "indexed": true,
                    "internalType": "bytes32",
                    "name": "role",
                    "type": "bytes32"
                },
                {
                    "indexed": true,
                    "internalType": "address",
                    "name": "account",
                    "type": "address"
                },
                {
                    "indexed": true,
                    "internalType": "address",
                    "name": "sender",
                    "type": "address"
                }
            ],
            "name": "RoleRevoked",
            "type": "event"
        },
        {
            "anonymous": false,
            "inputs": [
                {
                    "indexed": true,
                    "internalType": "address",
                    "name": "from",
                    "type": "address"
                },
                {
                    "indexed": true,
                    "internalType": "address",
                    "name": "to",
                    "type": "address"
                },
                {
                    "indexed": true,
                    "internalType": "uint256",
                    "name": "tokenId",
                    "type": "uint256"
                }
            ],
            "name": "Transfer",
            "type": "event"
        },
        {
            "anonymous": false,
            "inputs": [
                {
                    "indexed": false,
                    "internalType": "address",
                    "name": "account",
                    "type": "address"
                }
            ],
            "name": "Unpaused",
            "type": "event"
        },
        {
            "inputs": [],
            "name": "DEFAULT_ADMIN_ROLE",
            "outputs": [
                {
                    "internalType": "bytes32",
                    "name": "",
                    "type": "bytes32"
                }
            ],
            "stateMutability": "view",
            "type": "function"
        },
        {
            "inputs": [],
            "name": "MINTER_ROLE",
            "outputs": [
                {
                    "internalType": "bytes32",
                    "name": "",
                    "type": "bytes32"
                }
            ],
            "stateMutability": "view",
            "type": "function"
        },
        {
            "inputs": [],
            "name": "PAUSER_ROLE",
            "outputs": [
                {
                    "internalType": "bytes32",
                    "name": "",
                    "type": "bytes32"
                }
            ],
            "stateMutability": "view",
            "type": "function"
        },
        {
            "inputs": [
                {
                    "internalType": "address",
                    "name": "to",
                    "type": "address"
                },
                {
                    "internalType": "uint256",
                    "name": "tokenId",
                    "type": "uint256"
                }
            ],
            "name": "approve",
            "outputs": [],
            "stateMutability": "nonpayable",
            "type": "function"
        },
        {
            "inputs": [
                {
                    "internalType": "address",
                    "name": "owner",
                    "type": "address"
                }
            ],
            "name": "balanceOf",
            "outputs": [
                {
                    "internalType": "uint256",
                    "name": "",
                    "type": "uint256"
                }
            ],
            "stateMutability": "view",
            "type": "function"
        },
        {
            "inputs": [
                {
                    "internalType": "uint256",
                    "name": "tokenId",
                    "type": "uint256"
                }
            ],
            "name": "burn",
            "outputs": [],
            "stateMutability": "nonpayable",
            "type": "function"
        },
        {
            "inputs": [],
            "name": "developer",
            "outputs": [
                {
                    "internalType": "address",
                    "name": "",
                    "type": "address"
                }
            ],
            "stateMutability": "view",
            "type": "function"
        },
        {
            "inputs": [
                {
                    "internalType": "uint256",
                    "name": "tokenId",
                    "type": "uint256"
                }
            ],
            "name": "facilitateSale",
            "outputs": [],
            "stateMutability": "payable",
            "type": "function"
        },
        {
            "inputs": [
                {
                    "internalType": "uint256",
                    "name": "tokenId",
                    "type": "uint256"
                }
            ],
            "name": "getApproved",
            "outputs": [
                {
                    "internalType": "address",
                    "name": "",
                    "type": "address"
                }
            ],
            "stateMutability": "view",
            "type": "function"
        },
        {
            "inputs": [
                {
                    "internalType": "uint256",
                    "name": "tokenId",
                    "type": "uint256"
                }
            ],
            "name": "getResalePrice",
            "outputs": [
                {
                    "internalType": "uint256",
                    "name": "",
                    "type": "uint256"
                }
            ],
            "stateMutability": "view",
            "type": "function"
        },
        {
            "inputs": [
                {
                    "internalType": "bytes32",
                    "name": "role",
                    "type": "bytes32"
                }
            ],
            "name": "getRoleAdmin",
            "outputs": [
                {
                    "internalType": "bytes32",
                    "name": "",
                    "type": "bytes32"
                }
            ],
            "stateMutability": "view",
            "type": "function"
        },
        {
            "inputs": [
                {
                    "internalType": "bytes32",
                    "name": "role",
                    "type": "bytes32"
                },
                {
                    "internalType": "uint256",
                    "name": "index",
                    "type": "uint256"
                }
            ],
            "name": "getRoleMember",
            "outputs": [
                {
                    "internalType": "address",
                    "name": "",
                    "type": "address"
                }
            ],
            "stateMutability": "view",
            "type": "function"
        },
        {
            "inputs": [
                {
                    "internalType": "bytes32",
                    "name": "role",
                    "type": "bytes32"
                }
            ],
            "name": "getRoleMemberCount",
            "outputs": [
                {
                    "internalType": "uint256",
                    "name": "",
                    "type": "uint256"
                }
            ],
            "stateMutability": "view",
            "type": "function"
        },
        {
            "inputs": [
                {
                    "internalType": "bytes32",
                    "name": "role",
                    "type": "bytes32"
                },
                {
                    "internalType": "address",
                    "name": "account",
                    "type": "address"
                }
            ],
            "name": "grantRole",
            "outputs": [],
            "stateMutability": "nonpayable",
            "type": "function"
        },
        {
            "inputs": [
                {
                    "internalType": "bytes32",
                    "name": "role",
                    "type": "bytes32"
                },
                {
                    "internalType": "address",
                    "name": "account",
                    "type": "address"
                }
            ],
            "name": "hasRole",
            "outputs": [
                {
                    "internalType": "bool",
                    "name": "",
                    "type": "bool"
                }
            ],
            "stateMutability": "view",
            "type": "function"
        },
        {
            "inputs": [
                {
                    "internalType": "address",
                    "name": "owner",
                    "type": "address"
                },
                {
                    "internalType": "address",
                    "name": "operator",
                    "type": "address"
                }
            ],
            "name": "isApprovedForAll",
            "outputs": [
                {
                    "internalType": "bool",
                    "name": "",
                    "type": "bool"
                }
            ],
            "stateMutability": "view",
            "type": "function"
        },
        {
            "inputs": [
                {
                    "internalType": "address",
                    "name": "to",
                    "type": "address"
                }
            ],
            "name": "mint",
            "outputs": [],
            "stateMutability": "nonpayable",
            "type": "function"
        },
        {
            "inputs": [],
            "name": "name",
            "outputs": [
                {
                    "internalType": "string",
                    "name": "",
                    "type": "string"
                }
            ],
            "stateMutability": "view",
            "type": "function"
        },
        {
            "inputs": [
                {
                    "internalType": "uint256",
                    "name": "tokenId",
                    "type": "uint256"
                }
            ],
            "name": "ownerOf",
            "outputs": [
                {
                    "internalType": "address",
                    "name": "",
                    "type": "address"
                }
            ],
            "stateMutability": "view",
            "type": "function"
        },
        {
            "inputs": [],
            "name": "pause",
            "outputs": [],
            "stateMutability": "nonpayable",
            "type": "function"
        },
        {
            "inputs": [],
            "name": "paused",
            "outputs": [
                {
                    "internalType": "bool",
                    "name": "",
                    "type": "bool"
                }
            ],
            "stateMutability": "view",
            "type": "function"
        },
        {
            "inputs": [],
            "name": "price",
            "outputs": [
                {
                    "internalType": "uint256",
                    "name": "",
                    "type": "uint256"
                }
            ],
            "stateMutability": "view",
            "type": "function"
        },
        {
            "inputs": [],
            "name": "purchase",
            "outputs": [],
            "stateMutability": "payable",
            "type": "function"
        },
        {
            "inputs": [
                {
                    "internalType": "uint256",
                    "name": "quantity",
                    "type": "uint256"
                }
            ],
            "name": "purchaseMultipleTokens",
            "outputs": [],
            "stateMutability": "payable",
            "type": "function"
        },
        {
            "inputs": [
                {
                    "internalType": "bytes32",
                    "name": "role",
                    "type": "bytes32"
                },
                {
                    "internalType": "address",
                    "name": "account",
                    "type": "address"
                }
            ],
            "name": "renounceRole",
            "outputs": [],
            "stateMutability": "nonpayable",
            "type": "function"
        },
        {
            "inputs": [
                {
                    "internalType": "bytes32",
                    "name": "role",
                    "type": "bytes32"
                },
                {
                    "internalType": "address",
                    "name": "account",
                    "type": "address"
                }
            ],
            "name": "revokeRole",
            "outputs": [],
            "stateMutability": "nonpayable",
            "type": "function"
        },
        {
            "inputs": [
                {
                    "internalType": "address",
                    "name": "from",
                    "type": "address"
                },
                {
                    "internalType": "address",
                    "name": "to",
                    "type": "address"
                },
                {
                    "internalType": "uint256",
                    "name": "tokenId",
                    "type": "uint256"
                }
            ],
            "name": "safeTransferFrom",
            "outputs": [],
            "stateMutability": "nonpayable",
            "type": "function"
        },
        {
            "inputs": [
                {
                    "internalType": "address",
                    "name": "from",
                    "type": "address"
                },
                {
                    "internalType": "address",
                    "name": "to",
                    "type": "address"
                },
                {
                    "internalType": "uint256",
                    "name": "tokenId",
                    "type": "uint256"
                },
                {
                    "internalType": "bytes",
                    "name": "_data",
                    "type": "bytes"
                }
            ],
            "name": "safeTransferFrom",
            "outputs": [],
            "stateMutability": "nonpayable",
            "type": "function"
        },
        {
            "inputs": [
                {
                    "internalType": "address",
                    "name": "operator",
                    "type": "address"
                },
                {
                    "internalType": "bool",
                    "name": "approved",
                    "type": "bool"
                }
            ],
            "name": "setApprovalForAll",
            "outputs": [],
            "stateMutability": "nonpayable",
            "type": "function"
        },
        {
            "inputs": [
                {
                    "internalType": "uint256",
                    "name": "setPrice",
                    "type": "uint256"
                },
                {
                    "internalType": "uint256",
                    "name": "tokenId",
                    "type": "uint256"
                }
            ],
            "name": "setResalePrice",
            "outputs": [],
            "stateMutability": "nonpayable",
            "type": "function"
        },
        {
            "inputs": [
                {
                    "internalType": "bytes4",
                    "name": "interfaceId",
                    "type": "bytes4"
                }
            ],
            "name": "supportsInterface",
            "outputs": [
                {
                    "internalType": "bool",
                    "name": "",
                    "type": "bool"
                }
            ],
            "stateMutability": "view",
            "type": "function"
        },
        {
            "inputs": [],
            "name": "symbol",
            "outputs": [
                {
                    "internalType": "string",
                    "name": "",
                    "type": "string"
                }
            ],
            "stateMutability": "view",
            "type": "function"
        },
        {
            "inputs": [
                {
                    "internalType": "uint256",
                    "name": "index",
                    "type": "uint256"
                }
            ],
            "name": "tokenByIndex",
            "outputs": [
                {
                    "internalType": "uint256",
                    "name": "",
                    "type": "uint256"
                }
            ],
            "stateMutability": "view",
            "type": "function"
        },
        {
            "inputs": [
                {
                    "internalType": "address",
                    "name": "owner",
                    "type": "address"
                },
                {
                    "internalType": "uint256",
                    "name": "index",
                    "type": "uint256"
                }
            ],
            "name": "tokenOfOwnerByIndex",
            "outputs": [
                {
                    "internalType": "uint256",
                    "name": "",
                    "type": "uint256"
                }
            ],
            "stateMutability": "view",
            "type": "function"
        },
        {
            "inputs": [
                {
                    "internalType": "uint256",
                    "name": "tokenId",
                    "type": "uint256"
                }
            ],
            "name": "tokenURI",
            "outputs": [
                {
                    "internalType": "string",
                    "name": "",
                    "type": "string"
                }
            ],
            "stateMutability": "view",
            "type": "function"
        },
        {
            "inputs": [],
            "name": "totalSupply",
            "outputs": [
                {
                    "internalType": "uint256",
                    "name": "",
                    "type": "uint256"
                }
            ],
            "stateMutability": "view",
            "type": "function"
        },
        {
            "inputs": [
                {
                    "internalType": "address",
                    "name": "from",
                    "type": "address"
                },
                {
                    "internalType": "address",
                    "name": "to",
                    "type": "address"
                },
                {
                    "internalType": "uint256",
                    "name": "tokenId",
                    "type": "uint256"
                }
            ],
            "name": "transferFrom",
            "outputs": [],
            "stateMutability": "nonpayable",
            "type": "function"
        },
        {
            "inputs": [],
            "name": "unpause",
            "outputs": [],
            "stateMutability": "nonpayable",
            "type": "function"
        }
    ],
    "bytecode": "60806040523480156200001157600080fd5b506040516200323f3803806200323f8339810160408190526200003491620003df565b828282828281600290805190602001906200005192919062000282565b5080516200006790600390602084019062000282565b5050600c805460ff191690555080516200008990600e90602084019062000282565b50620000976000336200011d565b620000b26000805160206200321f833981519152336200011d565b620000de7f65d7a28e3265b37a6474929f336521b332c1681b933f6cb9f3376673440d862a336200011d565b505050620001026000805160206200321f833981519152306200011d60201b60201c565b5050600f80546001600160a01b0319163317905550620004c3565b6200013482826200016060201b620014871760201c565b60008281526001602090815260409091206200015b9183906200149562000170821b17901c565b505050565b6200016c828262000190565b5050565b600062000187836001600160a01b03841662000230565b90505b92915050565b6000828152602081815260408083206001600160a01b038516845290915290205460ff166200016c576000828152602081815260408083206001600160a01b03851684529091529020805460ff19166001179055620001ec3390565b6001600160a01b0316816001600160a01b0316837f2f8788117e7eff1d82e926ec794901d17c78024a50270940304540a733656f0d60405160405180910390a45050565b600081815260018301602052604081205462000279575081546001818101845560008481526020808220909301849055845484825282860190935260409020919091556200018a565b5060006200018a565b828054620002909062000470565b90600052602060002090601f016020900481019282620002b45760008555620002ff565b82601f10620002cf57805160ff1916838001178555620002ff565b82800160010185558215620002ff579182015b82811115620002ff578251825591602001919060010190620002e2565b506200030d92915062000311565b5090565b5b808211156200030d576000815560010162000312565b600082601f8301126200033a57600080fd5b81516001600160401b0380821115620003575762000357620004ad565b604051601f8301601f19908116603f01168101908282118183101715620003825762000382620004ad565b816040528381526020925086838588010111156200039f57600080fd5b600091505b83821015620003c35785820183015181830184015290820190620003a4565b83821115620003d55760008385830101525b9695505050505050565b600080600060608486031215620003f557600080fd5b83516001600160401b03808211156200040d57600080fd5b6200041b8783880162000328565b945060208601519150808211156200043257600080fd5b620004408783880162000328565b935060408601519150808211156200045757600080fd5b50620004668682870162000328565b9150509250925092565b600181811c908216806200048557607f821691505b60208210811415620004a757634e487b7160e01b600052602260045260246000fd5b50919050565b634e487b7160e01b600052604160045260246000fd5b612d4c80620004d36000396000f3fe6080604052600436106102255760003560e01c80636dc4668c11610123578063b88d4fde116100ab578063d53913931161006f578063d53913931461062d578063d547741f14610661578063e63ab1e914610681578063e985e9c5146106b5578063f7e2aaab146106fe57600080fd5b8063b88d4fde1461059a578063c43f10a8146105ba578063c87b56dd146105cd578063ca15c873146105ed578063ca4b208b1461060d57600080fd5b806391d14854116100f257806391d148541461051457806395d89b4114610534578063a035b1fe14610549578063a217fddf14610565578063a22cb4651461057a57600080fd5b80636dc4668c146104ac57806370a08231146104bf5780638456cb59146104df5780639010d07c146104f457600080fd5b806333f84f80116101b15780634f6ccce7116101755780634f6ccce71461042c5780635c975abb1461044c5780636352211e1461046457806364edfbf0146104845780636a6278421461048c57600080fd5b806333f84f801461038a57806336568abe146103b75780633f4ba83a146103d757806342842e0e146103ec57806342966c681461040c57600080fd5b806318160ddd116101f857806318160ddd146102db57806323b872dd146102fa578063248a9ca31461031a5780632f2ff15d1461034a5780632f745c591461036a57600080fd5b806301ffc9a71461022a57806306fdde031461025f578063081812fc14610281578063095ea7b3146102b9575b600080fd5b34801561023657600080fd5b5061024a610245366004612961565b61071e565b60405190151581526020015b60405180910390f35b34801561026b57600080fd5b5061027461072f565b6040516102569190612aa8565b34801561028d57600080fd5b506102a161029c366004612903565b6107c1565b6040516001600160a01b039091168152602001610256565b3480156102c557600080fd5b506102d96102d43660046128d9565b61085b565b005b3480156102e757600080fd5b50600a545b604051908152602001610256565b34801561030657600080fd5b506102d9610315366004612785565b610971565b34801561032657600080fd5b506102ec610335366004612903565b60009081526020819052604090206001015490565b34801561035657600080fd5b506102d961036536600461291c565b6109a3565b34801561037657600080fd5b506102ec6103853660046128d9565b6109c5565b34801561039657600080fd5b506102ec6103a5366004612903565b60009081526010602052604090205490565b3480156103c357600080fd5b506102d96103d236600461291c565b610a5b565b3480156103e357600080fd5b506102d9610a7d565b3480156103f857600080fd5b506102d9610407366004612785565b610b25565b34801561041857600080fd5b506102d9610427366004612903565b610b40565b34801561043857600080fd5b506102ec610447366004612903565b610bba565b34801561045857600080fd5b50600c5460ff1661024a565b34801561047057600080fd5b506102a161047f366004612903565b610c4d565b6102d9610cc4565b34801561049857600080fd5b506102d96104a7366004612737565b610d8c565b6102d96104ba366004612903565b610e50565b3480156104cb57600080fd5b506102ec6104da366004612737565b610f51565b3480156104eb57600080fd5b506102d9610fd8565b34801561050057600080fd5b506102a161050f36600461293f565b61107c565b34801561052057600080fd5b5061024a61052f36600461291c565b61109b565b34801561054057600080fd5b506102746110c4565b34801561055557600080fd5b506102ec670de0b6b3a764000081565b34801561057157600080fd5b506102ec600081565b34801561058657600080fd5b506102d961059536600461289d565b6110d3565b3480156105a657600080fd5b506102d96105b53660046127c1565b611198565b6102d96105c8366004612903565b6111d0565b3480156105d957600080fd5b506102746105e8366004612903565b6112b5565b3480156105f957600080fd5b506102ec610608366004612903565b611425565b34801561061957600080fd5b50600f546102a1906001600160a01b031681565b34801561063957600080fd5b506102ec7f9f2df0fed2c77648de5860a4cc508cd0818c85b8b8a1ab4ceeef8d981c8956a681565b34801561066d57600080fd5b506102d961067c36600461291c565b61143c565b34801561068d57600080fd5b506102ec7f65d7a28e3265b37a6474929f336521b332c1681b933f6cb9f3376673440d862a81565b3480156106c157600080fd5b5061024a6106d0366004612752565b6001600160a01b03918216600090815260076020908152604080832093909416825291909152205460ff1690565b34801561070a57600080fd5b506102d961071936600461293f565b611446565b6000610729826114aa565b92915050565b60606002805461073e90612c28565b80601f016020809104026020016040519081016040528092919081815260200182805461076a90612c28565b80156107b75780601f1061078c576101008083540402835291602001916107b7565b820191906000526020600020905b81548152906001019060200180831161079a57829003601f168201915b5050505050905090565b6000818152600460205260408120546001600160a01b031661083f5760405162461bcd60e51b815260206004820152602c60248201527f4552433732313a20617070726f76656420717565727920666f72206e6f6e657860448201526b34b9ba32b73a103a37b5b2b760a11b60648201526084015b60405180910390fd5b506000908152600660205260409020546001600160a01b031690565b600061086682610c4d565b9050806001600160a01b0316836001600160a01b031614156108d45760405162461bcd60e51b815260206004820152602160248201527f4552433732313a20617070726f76616c20746f2063757272656e74206f776e656044820152603960f91b6064820152608401610836565b336001600160a01b03821614806108f057506108f081336106d0565b6109625760405162461bcd60e51b815260206004820152603860248201527f4552433732313a20617070726f76652063616c6c6572206973206e6f74206f7760448201527f6e6572206e6f7220617070726f76656420666f7220616c6c00000000000000006064820152608401610836565b61096c83836114cf565b505050565b61097c335b8261153d565b6109985760405162461bcd60e51b815260040161083690612b0d565b61096c838383611630565b6109ad82826117db565b600082815260016020526040902061096c9082611495565b60006109d083610f51565b8210610a325760405162461bcd60e51b815260206004820152602b60248201527f455243373231456e756d657261626c653a206f776e657220696e646578206f7560448201526a74206f6620626f756e647360a81b6064820152608401610836565b506001600160a01b03919091166000908152600860209081526040808320938352929052205490565b610a658282611801565b600082815260016020526040902061096c908261187b565b610aa77f65d7a28e3265b37a6474929f336521b332c1681b933f6cb9f3376673440d862a3361109b565b610b1b576040805162461bcd60e51b81526020600482015260248101919091527f4552433732315072657365744d696e7465725061757365724175746f49643a2060448201527f6d75737420686176652070617573657220726f6c6520746f20756e70617573656064820152608401610836565b610b23611890565b565b61096c83838360405180602001604052806000815250611198565b610b4933610976565b610bae5760405162461bcd60e51b815260206004820152603060248201527f4552433732314275726e61626c653a2063616c6c6572206973206e6f74206f7760448201526f1b995c881b9bdc88185c1c1c9bdd995960821b6064820152608401610836565b610bb781611923565b50565b6000610bc5600a5490565b8210610c285760405162461bcd60e51b815260206004820152602c60248201527f455243373231456e756d657261626c653a20676c6f62616c20696e646578206f60448201526b7574206f6620626f756e647360a01b6064820152608401610836565b600a8281548110610c3b57610c3b612cd4565b90600052602060002001549050919050565b6000818152600460205260408120546001600160a01b0316806107295760405162461bcd60e51b815260206004820152602960248201527f4552433732313a206f776e657220717565727920666f72206e6f6e657869737460448201526832b73a103a37b5b2b760b91b6064820152608401610836565b670de0b6b3a7640000341015610cd957600080fd5b600f546040516000916001600160a01b03169034908381818185875af1925050503d8060008114610d26576040519150601f19603f3d011682016040523d82523d6000602084013e610d2b565b606091505b5050905080610d3957600080fd5b6040516335313c2160e11b81523360048201523090636a62784290602401600060405180830381600087803b158015610d7157600080fd5b505af1158015610d85573d6000803e3d6000fd5b5050505050565b610db67f9f2df0fed2c77648de5860a4cc508cd0818c85b8b8a1ab4ceeef8d981c8956a63361109b565b610e285760405162461bcd60e51b815260206004820152603d60248201527f4552433732315072657365744d696e7465725061757365724175746f49643a2060448201527f6d7573742068617665206d696e74657220726f6c6520746f206d696e740000006064820152608401610836565b610e3a81610e3560125490565b6119ca565b610e42611b18565b610bb7601280546001019055565b600081815260106020526040902054610e6a90600a612baf565b601218341015610e7957600080fd5b6000610e8482610c4d565b90506000816001600160a01b03163460405160006040518083038185875af1925050503d8060008114610ed3576040519150601f19603f3d011682016040523d82523d6000602084013e610ed8565b606091505b5050905080610ee657600080fd5b6040516323b872dd60e01b81526001600160a01b03831660048201523360248201526044810184905230906323b872dd90606401600060405180830381600087803b158015610f3457600080fd5b505af1158015610f48573d6000803e3d6000fd5b50505050505050565b60006001600160a01b038216610fbc5760405162461bcd60e51b815260206004820152602a60248201527f4552433732313a2062616c616e636520717565727920666f7220746865207a65604482015269726f206164647265737360b01b6064820152608401610836565b506001600160a01b031660009081526005602052604090205490565b6110027f65d7a28e3265b37a6474929f336521b332c1681b933f6cb9f3376673440d862a3361109b565b6110745760405162461bcd60e51b815260206004820152603e60248201527f4552433732315072657365744d696e7465725061757365724175746f49643a2060448201527f6d75737420686176652070617573657220726f6c6520746f20706175736500006064820152608401610836565b610b23611b70565b60008281526001602052604081206110949083611beb565b9392505050565b6000918252602082815260408084206001600160a01b0393909316845291905290205460ff1690565b60606003805461073e90612c28565b6001600160a01b03821633141561112c5760405162461bcd60e51b815260206004820152601960248201527f4552433732313a20617070726f766520746f2063616c6c6572000000000000006044820152606401610836565b3360008181526007602090815260408083206001600160a01b03871680855290835292819020805460ff191686151590811790915590519081529192917f17307eab39ab6107e8899845ad3d59bd9653f200f220920489ca2b5937696c31910160405180910390a35050565b6111a2338361153d565b6111be5760405162461bcd60e51b815260040161083690612b0d565b6111ca84848484611bf7565b50505050565b6111db816001612baf565b3410156111e757600080fd5b600f546040516000916001600160a01b03169034908381818185875af1925050503d8060008114611234576040519150601f19603f3d011682016040523d82523d6000602084013e611239565b606091505b505090508061124757600080fd5b60005b8281101561096c576040516335313c2160e11b81523360048201523090636a62784290602401600060405180830381600087803b15801561128a57600080fd5b505af115801561129e573d6000803e3d6000fd5b5050505080806112ad90612c63565b91505061124a565b6000818152600460205260409020546060906001600160a01b03166113345760405162461bcd60e51b815260206004820152602f60248201527f4552433732314d657461646174613a2055524920717565727920666f72206e6f60448201526e3732bc34b9ba32b73a103a37b5b2b760891b6064820152608401610836565b600061133e611c2a565b60008481526011602052604081208054929350909161135c90612c28565b80601f016020809104026020016040519081016040528092919081815260200182805461138890612c28565b80156113d55780601f106113aa576101008083540402835291602001916113d5565b820191906000526020600020905b8154815290600101906020018083116113b857829003601f168201915b5050505050905060008251116113fa576040518060200160405280600081525061141d565b818160405160200161140d9291906129c7565b6040516020818303038152906040525b949350505050565b600081815260016020526040812061072990611c39565b610a658282611c43565b61144f81610c4d565b6001600160a01b0316336001600160a01b03161461146c57600080fd5b611476308261085b565b600090815260106020526040902055565b6114918282611c69565b5050565b6000611094836001600160a01b038416611ced565b60006001600160e01b0319821663780e9d6360e01b1480610729575061072982611d3c565b600081815260066020526040902080546001600160a01b0319166001600160a01b038416908117909155819061150482610c4d565b6001600160a01b03167f8c5be1e5ebec7d5bd14f71427d1e84f3dd0314c0f7b2291e5b200ac8c7c3b92560405160405180910390a45050565b6000818152600460205260408120546001600160a01b03166115b65760405162461bcd60e51b815260206004820152602c60248201527f4552433732313a206f70657261746f7220717565727920666f72206e6f6e657860448201526b34b9ba32b73a103a37b5b2b760a11b6064820152608401610836565b60006115c183610c4d565b9050806001600160a01b0316846001600160a01b031614806115fc5750836001600160a01b03166115f1846107c1565b6001600160a01b0316145b8061141d57506001600160a01b0380821660009081526007602090815260408083209388168352929052205460ff1661141d565b826001600160a01b031661164382610c4d565b6001600160a01b0316146116ab5760405162461bcd60e51b815260206004820152602960248201527f4552433732313a207472616e73666572206f6620746f6b656e2074686174206960448201526839903737ba1037bbb760b91b6064820152608401610836565b6001600160a01b03821661170d5760405162461bcd60e51b8152602060048201526024808201527f4552433732313a207472616e7366657220746f20746865207a65726f206164646044820152637265737360e01b6064820152608401610836565b611718838383611d7c565b6117236000826114cf565b6001600160a01b038316600090815260056020526040812080546001929061174c908490612bce565b90915550506001600160a01b038216600090815260056020526040812080546001929061177a908490612b5e565b909155505060008181526004602052604080822080546001600160a01b0319166001600160a01b0386811691821790925591518493918716917fddf252ad1be2c89b69c2b068fc378daa952ba7f163c4a11628f55a4df523b3ef91a4505050565b6000828152602081905260409020600101546117f78133611d87565b61096c8383611c69565b6001600160a01b03811633146118715760405162461bcd60e51b815260206004820152602f60248201527f416363657373436f6e74726f6c3a2063616e206f6e6c792072656e6f756e636560448201526e103937b632b9903337b91039b2b63360891b6064820152608401610836565b6114918282611deb565b6000611094836001600160a01b038416611e50565b600c5460ff166118d95760405162461bcd60e51b815260206004820152601460248201527314185d5cd8589b194e881b9bdd081c185d5cd95960621b6044820152606401610836565b600c805460ff191690557f5db9ee0a495bf2e6ff9c91a7834c1ba4fdd244a5e8aa4e537bd38aeae4b073aa335b6040516001600160a01b03909116815260200160405180910390a1565b600061192e82610c4d565b905061193c81600084611d7c565b6119476000836114cf565b6001600160a01b0381166000908152600560205260408120805460019290611970908490612bce565b909155505060008281526004602052604080822080546001600160a01b0319169055518391906001600160a01b038416907fddf252ad1be2c89b69c2b068fc378daa952ba7f163c4a11628f55a4df523b3ef908390a45050565b6001600160a01b038216611a205760405162461bcd60e51b815260206004820181905260248201527f4552433732313a206d696e7420746f20746865207a65726f20616464726573736044820152606401610836565b6000818152600460205260409020546001600160a01b031615611a855760405162461bcd60e51b815260206004820152601c60248201527f4552433732313a20746f6b656e20616c7265616479206d696e746564000000006044820152606401610836565b611a9160008383611d7c565b6001600160a01b0382166000908152600560205260408120805460019290611aba908490612b5e565b909155505060008181526004602052604080822080546001600160a01b0319166001600160a01b03861690811790915590518392907fddf252ad1be2c89b69c2b068fc378daa952ba7f163c4a11628f55a4df523b3ef908290a45050565b60006001611b25600a5490565b611b2f9190612bce565b9050611b4d6019611b3e611f43565b611b489190612c7e565b611f72565b600082815260116020908152604090912082516114919391929190910190612682565b600c5460ff1615611bb65760405162461bcd60e51b815260206004820152601060248201526f14185d5cd8589b194e881c185d5cd95960821b6044820152606401610836565b600c805460ff191660011790557f62e78cea01bee320cd4e420270b5ea74000d11b0c9f74754ebdbfc544b05a2586119063390565b6000611094838361209b565b611c02848484611630565b611c0e848484846120c5565b6111ca5760405162461bcd60e51b815260040161083690612abb565b6060600e805461073e90612c28565b6000610729825490565b600082815260208190526040902060010154611c5f8133611d87565b61096c8383611deb565b611c73828261109b565b611491576000828152602081815260408083206001600160a01b03851684529091529020805460ff19166001179055611ca93390565b6001600160a01b0316816001600160a01b0316837f2f8788117e7eff1d82e926ec794901d17c78024a50270940304540a733656f0d60405160405180910390a45050565b6000818152600183016020526040812054611d3457508154600181810184556000848152602080822090930184905584548482528286019093526040902091909155610729565b506000610729565b60006001600160e01b031982166380ac58cd60e01b1480611d6d57506001600160e01b03198216635b5e139f60e01b145b806107295750610729826121d2565b61096c8383836121f7565b611d91828261109b565b61149157611da9816001600160a01b03166014612269565b611db4836020612269565b604051602001611dc59291906129f6565b60408051601f198184030181529082905262461bcd60e51b825261083691600401612aa8565b611df5828261109b565b15611491576000828152602081815260408083206001600160a01b0385168085529252808320805460ff1916905551339285917ff6391f5c32d9c69d2a47ea670b442974b53935d1edc7fd64eb21e047a839171b9190a45050565b60008181526001830160205260408120548015611f39576000611e74600183612bce565b8554909150600090611e8890600190612bce565b9050818114611eed576000866000018281548110611ea857611ea8612cd4565b9060005260206000200154905080876000018481548110611ecb57611ecb612cd4565b6000918252602080832090910192909255918252600188019052604090208390555b8554869080611efe57611efe612cbe565b600190038181906000526020600020016000905590558560010160008681526020019081526020016000206000905560019350505050610729565b6000915050610729565b6000611f4e60125490565b43611f594442612baf565b611f639190612baf565b611f6d9190612b5e565b905090565b606081611f965750506040805180820190915260018152600360fc1b602082015290565b8160005b8115611fc05780611faa81612c63565b9150611fb99050600a83612b9b565b9150611f9a565b60008167ffffffffffffffff811115611fdb57611fdb612cea565b6040519080825280601f01601f191660200182016040528015612005576020820181803683370190505b509050815b85156120925761201b600182612bce565b9050600061202a600a88612b9b565b61203590600a612baf565b61203f9088612bce565b61204a906030612b76565b905060008160f81b90508084848151811061206757612067612cd4565b60200101906001600160f81b031916908160001a905350612089600a89612b9b565b9750505061200a565b50949350505050565b60008260000182815481106120b2576120b2612cd4565b9060005260206000200154905092915050565b60006001600160a01b0384163b156121c757604051630a85bd0160e11b81526001600160a01b0385169063150b7a0290612109903390899088908890600401612a6b565b602060405180830381600087803b15801561212357600080fd5b505af1925050508015612153575060408051601f3d908101601f191682019092526121509181019061297e565b60015b6121ad573d808015612181576040519150601f19603f3d011682016040523d82523d6000602084013e612186565b606091505b5080516121a55760405162461bcd60e51b815260040161083690612abb565b805181602001fd5b6001600160e01b031916630a85bd0160e11b14905061141d565b506001949350505050565b60006001600160e01b03198216635a05180f60e01b1480610729575061072982612405565b61220283838361243a565b600c5460ff161561096c5760405162461bcd60e51b815260206004820152602b60248201527f4552433732315061757361626c653a20746f6b656e207472616e73666572207760448201526a1a1a5b19481c185d5cd95960aa1b6064820152608401610836565b60606000612278836002612baf565b612283906002612b5e565b67ffffffffffffffff81111561229b5761229b612cea565b6040519080825280601f01601f1916602001820160405280156122c5576020820181803683370190505b509050600360fc1b816000815181106122e0576122e0612cd4565b60200101906001600160f81b031916908160001a905350600f60fb1b8160018151811061230f5761230f612cd4565b60200101906001600160f81b031916908160001a9053506000612333846002612baf565b61233e906001612b5e565b90505b60018111156123b6576f181899199a1a9b1b9c1cb0b131b232b360811b85600f166010811061237257612372612cd4565b1a60f81b82828151811061238857612388612cd4565b60200101906001600160f81b031916908160001a90535060049490941c936123af81612c11565b9050612341565b5083156110945760405162461bcd60e51b815260206004820181905260248201527f537472696e67733a20686578206c656e67746820696e73756666696369656e746044820152606401610836565b60006001600160e01b03198216637965db0b60e01b148061072957506301ffc9a760e01b6001600160e01b0319831614610729565b6001600160a01b0383166124955761249081600a80546000838152600b60205260408120829055600182018355919091527fc65a7bb8d6351c1cf70c95a316cc6a92839c986682d98bc35f958f4883f9d2a80155565b6124b8565b816001600160a01b0316836001600160a01b0316146124b8576124b883826124f2565b6001600160a01b0382166124cf5761096c8161258f565b826001600160a01b0316826001600160a01b03161461096c5761096c828261263e565b600060016124ff84610f51565b6125099190612bce565b60008381526009602052604090205490915080821461255c576001600160a01b03841660009081526008602090815260408083208584528252808320548484528184208190558352600990915290208190555b5060009182526009602090815260408084208490556001600160a01b039094168352600881528383209183525290812055565b600a546000906125a190600190612bce565b6000838152600b6020526040812054600a80549394509092849081106125c9576125c9612cd4565b9060005260206000200154905080600a83815481106125ea576125ea612cd4565b6000918252602080832090910192909255828152600b9091526040808220849055858252812055600a80548061262257612622612cbe565b6001900381819060005260206000200160009055905550505050565b600061264983610f51565b6001600160a01b039093166000908152600860209081526040808320868452825280832085905593825260099052919091209190915550565b82805461268e90612c28565b90600052602060002090601f0160209004810192826126b057600085556126f6565b82601f106126c957805160ff19168380011785556126f6565b828001600101855582156126f6579182015b828111156126f65782518255916020019190600101906126db565b50612702929150612706565b5090565b5b808211156127025760008155600101612707565b80356001600160a01b038116811461273257600080fd5b919050565b60006020828403121561274957600080fd5b6110948261271b565b6000806040838503121561276557600080fd5b61276e8361271b565b915061277c6020840161271b565b90509250929050565b60008060006060848603121561279a57600080fd5b6127a38461271b565b92506127b16020850161271b565b9150604084013590509250925092565b600080600080608085870312156127d757600080fd5b6127e08561271b565b93506127ee6020860161271b565b925060408501359150606085013567ffffffffffffffff8082111561281257600080fd5b818701915087601f83011261282657600080fd5b81358181111561283857612838612cea565b604051601f8201601f19908116603f0116810190838211818310171561286057612860612cea565b816040528281528a602084870101111561287957600080fd5b82602086016020830137600060208483010152809550505050505092959194509250565b600080604083850312156128b057600080fd5b6128b98361271b565b9150602083013580151581146128ce57600080fd5b809150509250929050565b600080604083850312156128ec57600080fd5b6128f58361271b565b946020939093013593505050565b60006020828403121561291557600080fd5b5035919050565b6000806040838503121561292f57600080fd5b8235915061277c6020840161271b565b6000806040838503121561295257600080fd5b50508035926020909101359150565b60006020828403121561297357600080fd5b813561109481612d00565b60006020828403121561299057600080fd5b815161109481612d00565b600081518084526129b3816020860160208601612be5565b601f01601f19169290920160200192915050565b600083516129d9818460208801612be5565b8351908301906129ed818360208801612be5565b01949350505050565b7f416363657373436f6e74726f6c3a206163636f756e7420000000000000000000815260008351612a2e816017850160208801612be5565b7001034b99036b4b9b9b4b733903937b6329607d1b6017918401918201528351612a5f816028840160208801612be5565b01602801949350505050565b6001600160a01b0385811682528416602082015260408101839052608060608201819052600090612a9e9083018461299b565b9695505050505050565b602081526000611094602083018461299b565b60208082526032908201527f4552433732313a207472616e7366657220746f206e6f6e20455243373231526560408201527131b2b4bb32b91034b6b83632b6b2b73a32b960711b606082015260800190565b60208082526031908201527f4552433732313a207472616e736665722063616c6c6572206973206e6f74206f6040820152701ddb995c881b9bdc88185c1c1c9bdd9959607a1b606082015260800190565b60008219821115612b7157612b71612c92565b500190565b600060ff821660ff84168060ff03821115612b9357612b93612c92565b019392505050565b600082612baa57612baa612ca8565b500490565b6000816000190483118215151615612bc957612bc9612c92565b500290565b600082821015612be057612be0612c92565b500390565b60005b83811015612c00578181015183820152602001612be8565b838111156111ca5750506000910152565b600081612c2057612c20612c92565b506000190190565b600181811c90821680612c3c57607f821691505b60208210811415612c5d57634e487b7160e01b600052602260045260246000fd5b50919050565b6000600019821415612c7757612c77612c92565b5060010190565b600082612c8d57612c8d612ca8565b500690565b634e487b7160e01b600052601160045260246000fd5b634e487b7160e01b600052601260045260246000fd5b634e487b7160e01b600052603160045260246000fd5b634e487b7160e01b600052603260045260246000fd5b634e487b7160e01b600052604160045260246000fd5b6001600160e01b031981168114610bb757600080fdfea264697066735822122014ce50bd563bb5bdf449aafefa12ada58be37596c16a666f6fd36f6dced16a7764736f6c634300080600339f2df0fed2c77648de5860a4cc508cd0818c85b8b8a1ab4ceeef8d981c8956a6",
    "sourcePath": "/home/dev2/Desktop/BlockChain BAS/NFT/contracts/Animals.sol",
    "compiler": {
        "name": "solc",
        "version": "0.8.6+commit.11564f7e"
    },
    "functionHashes": {
        "DEFAULT_ADMIN_ROLE()": "a217fddf",
        "MINTER_ROLE()": "d5391393",
        "PAUSER_ROLE()": "e63ab1e9",
        "approve(address,uint256)": "095ea7b3",
        "balanceOf(address)": "70a08231",
        "burn(uint256)": "42966c68",
        "developer()": "ca4b208b",
        "facilitateSale(uint256)": "6dc4668c",
        "getApproved(uint256)": "081812fc",
        "getResalePrice(uint256)": "33f84f80",
        "getRoleAdmin(bytes32)": "248a9ca3",
        "getRoleMember(bytes32,uint256)": "9010d07c",
        "getRoleMemberCount(bytes32)": "ca15c873",
        "grantRole(bytes32,address)": "2f2ff15d",
        "hasRole(bytes32,address)": "91d14854",
        "isApprovedForAll(address,address)": "e985e9c5",
        "mint(address)": "6a627842",
        "name()": "06fdde03",
        "ownerOf(uint256)": "6352211e",
        "pause()": "8456cb59",
        "paused()": "5c975abb",
        "price()": "a035b1fe",
        "purchase()": "64edfbf0",
        "purchaseMultipleTokens(uint256)": "c43f10a8",
        "renounceRole(bytes32,address)": "36568abe",
        "revokeRole(bytes32,address)": "d547741f",
        "safeTransferFrom(address,address,uint256)": "42842e0e",
        "safeTransferFrom(address,address,uint256,bytes)": "b88d4fde",
        "setApprovalForAll(address,bool)": "a22cb465",
        "setResalePrice(uint256,uint256)": "f7e2aaab",
        "supportsInterface(bytes4)": "01ffc9a7",
        "symbol()": "95d89b41",
        "tokenByIndex(uint256)": "4f6ccce7",
        "tokenOfOwnerByIndex(address,uint256)": "2f745c59",
        "tokenURI(uint256)": "c87b56dd",
        "totalSupply()": "18160ddd",
        "transferFrom(address,address,uint256)": "23b872dd",
        "unpause()": "3f4ba83a"
    },
    "gasEstimates": {
        "creation": {
            "codeDepositCost": "2319200",
            "executionCost": "infinite",
            "totalCost": "infinite"
        },
        "external": {
            "DEFAULT_ADMIN_ROLE()": "306",
            "MINTER_ROLE()": "239",
            "PAUSER_ROLE()": "283",
            "approve(address,uint256)": "infinite",
            "balanceOf(address)": "2657",
            "burn(uint256)": "infinite",
            "developer()": "2470",
            "facilitateSale(uint256)": "infinite",
            "getApproved(uint256)": "4783",
            "getResalePrice(uint256)": "2484",
            "getRoleAdmin(bytes32)": "2537",
            "getRoleMember(bytes32,uint256)": "infinite",
            "getRoleMemberCount(bytes32)": "infinite",
            "grantRole(bytes32,address)": "infinite",
            "hasRole(bytes32,address)": "2696",
            "isApprovedForAll(address,address)": "infinite",
            "mint(address)": "infinite",
            "name()": "infinite",
            "ownerOf(uint256)": "2645",
            "pause()": "30014",
            "paused()": "2360",
            "price()": "284",
            "purchase()": "infinite",
            "purchaseMultipleTokens(uint256)": "infinite",
            "renounceRole(bytes32,address)": "infinite",
            "revokeRole(bytes32,address)": "infinite",
            "safeTransferFrom(address,address,uint256)": "infinite",
            "safeTransferFrom(address,address,uint256,bytes)": "infinite",
            "setApprovalForAll(address,bool)": "26761",
            "setResalePrice(uint256,uint256)": "infinite",
            "supportsInterface(bytes4)": "infinite",
            "symbol()": "infinite",
            "tokenByIndex(uint256)": "6760",
            "tokenOfOwnerByIndex(address,uint256)": "5064",
            "tokenURI(uint256)": "infinite",
            "totalSupply()": "2327",
            "transferFrom(address,address,uint256)": "infinite",
            "unpause()": "29991"
        },
        "internal": {
            "mapTokenIdToIPFS()": "infinite",
            "random()": "infinite",
            "uint2str(uint256)": "infinite"
        }
    }
}